1170616MASS203PROD1706161301BR                                                                                                                                                                                                                                 
200000157565594       170301D  2470247235451  3RFND7906041892608503247  2 PEIXOTO/G               (                                         000000000000                 000000000000                 000000000000                 0000              FBR       
300000110002472421292659  30000               00000               00000               00000               00000               00000               0170302                                                                                                      
500000100000000000           BR      00000000000CP      00000000000        0000000000000000001000BRL200000000000         00000000000        00000000000        00000000000      0000000000000070      0000000000000000      0000000000000000  00000000000      
8000001                   00000001000      BRL2  CA                                                                                                  00000000000                                                                                               
200000257565594       170301D  2470247235452  2RFND7906042640642212247  2 WOLFF/ALAIDE                                                      000000000000                 000000000000                 000000000000                 0000              MBR       
300000212002472428334700  20000               00000               00000               00000               00000               00000               0170302                                                                                                      
500000200000000000           BR      00000005853CP      00000014500        0000000000000000020353BRL200000000000         00000000000        00000000000        00000000000      0000000000002030      0000000000000000      0000000000000000  00000000000      
8000002514945XXXXXX7515X  00000020353059463BRL2  CCCA5149                                                                                            00000000000                                                                                               
200000357565594       170301D  2470247235453  3RFND7906042640649960247  2 WOLFF/FABIANO ANTONIO                                             000000000000                 000000000000                 000000000000                 0000              MBR       
300000312002472428334701  30000               00000               00000               00000               00000               00000               0170302                                                                                                      
500000300000000000           BR      00000005853CP      00000014500        0000000000000000020353BRL200000000000         00000000000        00000000000        00000000000      0000000000002030      0000000000000000      0000000000000000  00000000000      
8000003514945XXXXXX7515X  00000020353059508BRL2  CCCA5149                                                                                            00000000000                                                                                               
200000457565594       170301D  2470247235454  4RFND7906042161121422247  2 PEREIRA/ELLIZA          (                                         000000000000                 000000000000                 000000000000                 0000              FBR       
300000410002472428421292  40000               00000               00000               00000               00000               00000               0170302                                                                                                      
500000400000000000           BR      00000000000CP      00000000000        0000000000000000001000BRL200000000000         00000000000        00000000000        00000000000      0000000000000070      0000000000000000      0000000000000000  00000000000      
8000004                   00000001000707055BRL2  CA                                                                                                  00000000000                                                                                               
Z00000000018                                                                                                                                                                                                                                                   
